{
  "_format": "hh-sol-artifact-1",
  "contractName": "Mage",
  "sourceName": "contracts/mageNft.sol",
  "abi": [
    {
      "inputs": [],
      "stateMutability": "nonpayable",
      "type": "constructor"
    },
    {
      "anonymous": false,
      "inputs": [
        {
          "indexed": true,
          "internalType": "address",
          "name": "account",
          "type": "address"
        },
        {
          "indexed": true,
          "internalType": "address",
          "name": "operator",
          "type": "address"
        },
        {
          "indexed": false,
          "internalType": "bool",
          "name": "approved",
          "type": "bool"
        }
      ],
      "name": "ApprovalForAll",
      "type": "event"
    },
    {
      "anonymous": false,
      "inputs": [
        {
          "indexed": true,
          "internalType": "address",
          "name": "operator",
          "type": "address"
        },
        {
          "indexed": true,
          "internalType": "address",
          "name": "from",
          "type": "address"
        },
        {
          "indexed": true,
          "internalType": "address",
          "name": "to",
          "type": "address"
        },
        {
          "indexed": false,
          "internalType": "uint256[]",
          "name": "ids",
          "type": "uint256[]"
        },
        {
          "indexed": false,
          "internalType": "uint256[]",
          "name": "values",
          "type": "uint256[]"
        }
      ],
      "name": "TransferBatch",
      "type": "event"
    },
    {
      "anonymous": false,
      "inputs": [
        {
          "indexed": true,
          "internalType": "address",
          "name": "operator",
          "type": "address"
        },
        {
          "indexed": true,
          "internalType": "address",
          "name": "from",
          "type": "address"
        },
        {
          "indexed": true,
          "internalType": "address",
          "name": "to",
          "type": "address"
        },
        {
          "indexed": false,
          "internalType": "uint256",
          "name": "id",
          "type": "uint256"
        },
        {
          "indexed": false,
          "internalType": "uint256",
          "name": "value",
          "type": "uint256"
        }
      ],
      "name": "TransferSingle",
      "type": "event"
    },
    {
      "anonymous": false,
      "inputs": [
        {
          "indexed": false,
          "internalType": "string",
          "name": "value",
          "type": "string"
        },
        {
          "indexed": true,
          "internalType": "uint256",
          "name": "id",
          "type": "uint256"
        }
      ],
      "name": "URI",
      "type": "event"
    },
    {
      "inputs": [
        {
          "internalType": "address",
          "name": "account",
          "type": "address"
        },
        {
          "internalType": "uint256",
          "name": "id",
          "type": "uint256"
        }
      ],
      "name": "balanceOf",
      "outputs": [
        {
          "internalType": "uint256",
          "name": "",
          "type": "uint256"
        }
      ],
      "stateMutability": "view",
      "type": "function"
    },
    {
      "inputs": [
        {
          "internalType": "address[]",
          "name": "accounts",
          "type": "address[]"
        },
        {
          "internalType": "uint256[]",
          "name": "ids",
          "type": "uint256[]"
        }
      ],
      "name": "balanceOfBatch",
      "outputs": [
        {
          "internalType": "uint256[]",
          "name": "",
          "type": "uint256[]"
        }
      ],
      "stateMutability": "view",
      "type": "function"
    },
    {
      "inputs": [
        {
          "internalType": "address",
          "name": "account",
          "type": "address"
        },
        {
          "internalType": "address",
          "name": "operator",
          "type": "address"
        }
      ],
      "name": "isApprovedForAll",
      "outputs": [
        {
          "internalType": "bool",
          "name": "",
          "type": "bool"
        }
      ],
      "stateMutability": "view",
      "type": "function"
    },
    {
      "inputs": [
        {
          "internalType": "uint256",
          "name": "id",
          "type": "uint256"
        }
      ],
      "name": "mintRandomMage",
      "outputs": [],
      "stateMutability": "nonpayable",
      "type": "function"
    },
    {
      "inputs": [
        {
          "internalType": "address",
          "name": "from",
          "type": "address"
        },
        {
          "internalType": "address",
          "name": "to",
          "type": "address"
        },
        {
          "internalType": "uint256[]",
          "name": "ids",
          "type": "uint256[]"
        },
        {
          "internalType": "uint256[]",
          "name": "amounts",
          "type": "uint256[]"
        },
        {
          "internalType": "bytes",
          "name": "data",
          "type": "bytes"
        }
      ],
      "name": "safeBatchTransferFrom",
      "outputs": [],
      "stateMutability": "nonpayable",
      "type": "function"
    },
    {
      "inputs": [
        {
          "internalType": "address",
          "name": "from",
          "type": "address"
        },
        {
          "internalType": "address",
          "name": "to",
          "type": "address"
        },
        {
          "internalType": "uint256",
          "name": "id",
          "type": "uint256"
        },
        {
          "internalType": "uint256",
          "name": "amount",
          "type": "uint256"
        },
        {
          "internalType": "bytes",
          "name": "data",
          "type": "bytes"
        }
      ],
      "name": "safeTransferFrom",
      "outputs": [],
      "stateMutability": "nonpayable",
      "type": "function"
    },
    {
      "inputs": [
        {
          "internalType": "address",
          "name": "operator",
          "type": "address"
        },
        {
          "internalType": "bool",
          "name": "approved",
          "type": "bool"
        }
      ],
      "name": "setApprovalForAll",
      "outputs": [],
      "stateMutability": "nonpayable",
      "type": "function"
    },
    {
      "inputs": [
        {
          "internalType": "bytes4",
          "name": "interfaceId",
          "type": "bytes4"
        }
      ],
      "name": "supportsInterface",
      "outputs": [
        {
          "internalType": "bool",
          "name": "",
          "type": "bool"
        }
      ],
      "stateMutability": "view",
      "type": "function"
    },
    {
      "inputs": [
        {
          "internalType": "uint256",
          "name": "",
          "type": "uint256"
        }
      ],
      "name": "uri",
      "outputs": [
        {
          "internalType": "string",
          "name": "",
          "type": "string"
        }
      ],
      "stateMutability": "view",
      "type": "function"
    }
  ],
  "bytecode": "0x60806040523480156200001157600080fd5b5060405180608001604052806052815260200162002a40605291396200003d816200004460201b60201c565b5062000175565b80600290805190602001906200005c92919062000060565b5050565b8280546200006e9062000110565b90600052602060002090601f016020900481019282620000925760008555620000de565b82601f10620000ad57805160ff1916838001178555620000de565b82800160010185558215620000de579182015b82811115620000dd578251825591602001919060010190620000c0565b5b509050620000ed9190620000f1565b5090565b5b808211156200010c576000816000905550600101620000f2565b5090565b600060028204905060018216806200012957607f821691505b6020821081141562000140576200013f62000146565b5b50919050565b7f4e487b7100000000000000000000000000000000000000000000000000000000600052602260045260246000fd5b6128bb80620001856000396000f3fe608060405234801561001057600080fd5b50600436106100925760003560e01c80634e1273f4116100665780634e1273f414610143578063a22cb46514610173578063e985e9c51461018f578063f242432a146101bf578063fda1eab5146101db57610092565b8062fdd58e1461009757806301ffc9a7146100c75780630e89341c146100f75780632eb2c2d614610127575b600080fd5b6100b160048036038101906100ac91906119de565b6101f7565b6040516100be919061239f565b60405180910390f35b6100e160048036038101906100dc9190611a86565b6102c0565b6040516100ee91906121e2565b60405180910390f35b610111600480360381019061010c9190611ad8565b6103a2565b60405161011e91906121fd565b60405180910390f35b610141600480360381019061013c9190611854565b610436565b005b61015d60048036038101906101589190611a1a565b61082c565b60405161016a9190612189565b60405180910390f35b61018d600480360381019061018891906119a2565b6109dd565b005b6101a960048036038101906101a49190611818565b610b5e565b6040516101b691906121e2565b60405180910390f35b6101d960048036038101906101d49190611913565b610bf2565b005b6101f560048036038101906101f09190611ad8565b610f0a565b005b60008073ffffffffffffffffffffffffffffffffffffffff168373ffffffffffffffffffffffffffffffffffffffff161415610268576040517f08c379a000000000000000000000000000000000000000000000000000000000815260040161025f9061225f565b60405180910390fd5b60008083815260200190815260200160002060008473ffffffffffffffffffffffffffffffffffffffff1673ffffffffffffffffffffffffffffffffffffffff16815260200190815260200160002054905092915050565b60007fd9b67a26000000000000000000000000000000000000000000000000000000007bffffffffffffffffffffffffffffffffffffffffffffffffffffffff1916827bffffffffffffffffffffffffffffffffffffffffffffffffffffffff1916148061038b57507f0e89341c000000000000000000000000000000000000000000000000000000007bffffffffffffffffffffffffffffffffffffffffffffffffffffffff1916827bffffffffffffffffffffffffffffffffffffffffffffffffffffffff1916145b8061039b575061039a82610f92565b5b9050919050565b6060600280546103b19061264d565b80601f01602080910402602001604051908101604052809291908181526020018280546103dd9061264d565b801561042a5780601f106103ff5761010080835404028352916020019161042a565b820191906000526020600020905b81548152906001019060200180831161040d57829003601f168201915b50505050509050919050565b815183511461047a576040517f08c379a00000000000000000000000000000000000000000000000000000000081526004016104719061235f565b60405180910390fd5b600073ffffffffffffffffffffffffffffffffffffffff168473ffffffffffffffffffffffffffffffffffffffff1614156104ea576040517f08c379a00000000000000000000000000000000000000000000000000000000081526004016104e1906122bf565b60405180910390fd5b6104f2610ffc565b73ffffffffffffffffffffffffffffffffffffffff168573ffffffffffffffffffffffffffffffffffffffff161480610538575061053785610532610ffc565b610b5e565b5b610577576040517f08c379a000000000000000000000000000000000000000000000000000000000815260040161056e906122df565b60405180910390fd5b6000610581610ffc565b9050610591818787878787611004565b60005b84518110156107975760008582815181106105d8577f4e487b7100000000000000000000000000000000000000000000000000000000600052603260045260246000fd5b60200260200101519050600085838151811061061d577f4e487b7100000000000000000000000000000000000000000000000000000000600052603260045260246000fd5b60200260200101519050600080600084815260200190815260200160002060008b73ffffffffffffffffffffffffffffffffffffffff1673ffffffffffffffffffffffffffffffffffffffff168152602001908152602001600020549050818110156106be576040517f08c379a00000000000000000000000000000000000000000000000000000000081526004016106b5906122ff565b60405180910390fd5b81816106ca9190612563565b60008085815260200190815260200160002060008c73ffffffffffffffffffffffffffffffffffffffff1673ffffffffffffffffffffffffffffffffffffffff168152602001908152602001600020819055508160008085815260200190815260200160002060008b73ffffffffffffffffffffffffffffffffffffffff1673ffffffffffffffffffffffffffffffffffffffff168152602001908152602001600020600082825461077c919061250d565b92505081905550505050806107909061267f565b9050610594565b508473ffffffffffffffffffffffffffffffffffffffff168673ffffffffffffffffffffffffffffffffffffffff168273ffffffffffffffffffffffffffffffffffffffff167f4a39dc06d4c0dbc64b70af90fd698a233a518aa5d07e595d983b8c0526c8f7fb878760405161080e9291906121ab565b60405180910390a461082481878787878761100c565b505050505050565b60608151835114610872576040517f08c379a00000000000000000000000000000000000000000000000000000000081526004016108699061233f565b60405180910390fd5b6000835167ffffffffffffffff8111156108b5577f4e487b7100000000000000000000000000000000000000000000000000000000600052604160045260246000fd5b6040519080825280602002602001820160405280156108e35781602001602082028036833780820191505090505b50905060005b84518110156109d25761097c85828151811061092e577f4e487b7100000000000000000000000000000000000000000000000000000000600052603260045260246000fd5b602002602001015185838151811061096f577f4e487b7100000000000000000000000000000000000000000000000000000000600052603260045260246000fd5b60200260200101516101f7565b8282815181106109b5577f4e487b7100000000000000000000000000000000000000000000000000000000600052603260045260246000fd5b602002602001018181525050806109cb9061267f565b90506108e9565b508091505092915050565b8173ffffffffffffffffffffffffffffffffffffffff166109fc610ffc565b73ffffffffffffffffffffffffffffffffffffffff161415610a53576040517f08c379a0000000000000000000000000000000000000000000000000000000008152600401610a4a9061231f565b60405180910390fd5b8060016000610a60610ffc565b73ffffffffffffffffffffffffffffffffffffffff1673ffffffffffffffffffffffffffffffffffffffff16815260200190815260200160002060008473ffffffffffffffffffffffffffffffffffffffff1673ffffffffffffffffffffffffffffffffffffffff16815260200190815260200160002060006101000a81548160ff0219169083151502179055508173ffffffffffffffffffffffffffffffffffffffff16610b0d610ffc565b73ffffffffffffffffffffffffffffffffffffffff167f17307eab39ab6107e8899845ad3d59bd9653f200f220920489ca2b5937696c3183604051610b5291906121e2565b60405180910390a35050565b6000600160008473ffffffffffffffffffffffffffffffffffffffff1673ffffffffffffffffffffffffffffffffffffffff16815260200190815260200160002060008373ffffffffffffffffffffffffffffffffffffffff1673ffffffffffffffffffffffffffffffffffffffff16815260200190815260200160002060009054906101000a900460ff16905092915050565b600073ffffffffffffffffffffffffffffffffffffffff168473ffffffffffffffffffffffffffffffffffffffff161415610c62576040517f08c379a0000000000000000000000000000000000000000000000000000000008152600401610c59906122bf565b60405180910390fd5b610c6a610ffc565b73ffffffffffffffffffffffffffffffffffffffff168573ffffffffffffffffffffffffffffffffffffffff161480610cb05750610caf85610caa610ffc565b610b5e565b5b610cef576040517f08c379a0000000000000000000000000000000000000000000000000000000008152600401610ce69061229f565b60405180910390fd5b6000610cf9610ffc565b9050610d19818787610d0a886111dc565b610d13886111dc565b87611004565b600080600086815260200190815260200160002060008873ffffffffffffffffffffffffffffffffffffffff1673ffffffffffffffffffffffffffffffffffffffff16815260200190815260200160002054905083811015610db0576040517f08c379a0000000000000000000000000000000000000000000000000000000008152600401610da7906122ff565b60405180910390fd5b8381610dbc9190612563565b60008087815260200190815260200160002060008973ffffffffffffffffffffffffffffffffffffffff1673ffffffffffffffffffffffffffffffffffffffff168152602001908152602001600020819055508360008087815260200190815260200160002060008873ffffffffffffffffffffffffffffffffffffffff1673ffffffffffffffffffffffffffffffffffffffff1681526020019081526020016000206000828254610e6e919061250d565b925050819055508573ffffffffffffffffffffffffffffffffffffffff168773ffffffffffffffffffffffffffffffffffffffff168373ffffffffffffffffffffffffffffffffffffffff167fc3d58168c5ae7397731d063d5bbf3d657854427343f4c083240f7aacaa2d0f628888604051610eeb9291906123ba565b60405180910390a4610f018288888888886112a2565b50505050505050565b60648110610f4d576040517f08c379a0000000000000000000000000000000000000000000000000000000008152600401610f449061227f565b60405180910390fd5b610f8f338260016040518060400160405280600581526020017f3078303030000000000000000000000000000000000000000000000000000000815250611472565b50565b60007f01ffc9a7000000000000000000000000000000000000000000000000000000007bffffffffffffffffffffffffffffffffffffffffffffffffffffffff1916827bffffffffffffffffffffffffffffffffffffffffffffffffffffffff1916149050919050565b600033905090565b505050505050565b61102b8473ffffffffffffffffffffffffffffffffffffffff16611608565b156111d4578373ffffffffffffffffffffffffffffffffffffffff1663bc197c8187878686866040518663ffffffff1660e01b81526004016110719594939291906120c7565b602060405180830381600087803b15801561108b57600080fd5b505af19250505080156110bc57506040513d601f19601f820116820180604052508101906110b99190611aaf565b60015b61114b576110c8612773565b806110d35750611110565b806040517f08c379a000000000000000000000000000000000000000000000000000000000815260040161110791906121fd565b60405180910390fd5b6040517f08c379a00000000000000000000000000000000000000000000000000000000081526004016111429061221f565b60405180910390fd5b63bc197c8160e01b7bffffffffffffffffffffffffffffffffffffffffffffffffffffffff1916817bffffffffffffffffffffffffffffffffffffffffffffffffffffffff1916146111d2576040517f08c379a00000000000000000000000000000000000000000000000000000000081526004016111c99061223f565b60405180910390fd5b505b505050505050565b60606000600167ffffffffffffffff811115611221577f4e487b7100000000000000000000000000000000000000000000000000000000600052604160045260246000fd5b60405190808252806020026020018201604052801561124f5781602001602082028036833780820191505090505b509050828160008151811061128d577f4e487b7100000000000000000000000000000000000000000000000000000000600052603260045260246000fd5b60200260200101818152505080915050919050565b6112c18473ffffffffffffffffffffffffffffffffffffffff16611608565b1561146a578373ffffffffffffffffffffffffffffffffffffffff1663f23a6e6187878686866040518663ffffffff1660e01b815260040161130795949392919061212f565b602060405180830381600087803b15801561132157600080fd5b505af192505050801561135257506040513d601f19601f8201168201806040525081019061134f9190611aaf565b60015b6113e15761135e612773565b8061136957506113a6565b806040517f08c379a000000000000000000000000000000000000000000000000000000000815260040161139d91906121fd565b60405180910390fd5b6040517f08c379a00000000000000000000000000000000000000000000000000000000081526004016113d89061221f565b60405180910390fd5b63f23a6e6160e01b7bffffffffffffffffffffffffffffffffffffffffffffffffffffffff1916817bffffffffffffffffffffffffffffffffffffffffffffffffffffffff191614611468576040517f08c379a000000000000000000000000000000000000000000000000000000000815260040161145f9061223f565b60405180910390fd5b505b505050505050565b600073ffffffffffffffffffffffffffffffffffffffff168473ffffffffffffffffffffffffffffffffffffffff1614156114e2576040517f08c379a00000000000000000000000000000000000000000000000000000000081526004016114d99061237f565b60405180910390fd5b60006114ec610ffc565b905061150d816000876114fe886111dc565b611507886111dc565b87611004565b8260008086815260200190815260200160002060008773ffffffffffffffffffffffffffffffffffffffff1673ffffffffffffffffffffffffffffffffffffffff168152602001908152602001600020600082825461156c919061250d565b925050819055508473ffffffffffffffffffffffffffffffffffffffff16600073ffffffffffffffffffffffffffffffffffffffff168273ffffffffffffffffffffffffffffffffffffffff167fc3d58168c5ae7397731d063d5bbf3d657854427343f4c083240f7aacaa2d0f6287876040516115ea9291906123ba565b60405180910390a4611601816000878787876112a2565b5050505050565b600080823b905060008111915050919050565b600061162e61162984612414565b6123e3565b9050808382526020820190508285602086028201111561164d57600080fd5b60005b8581101561167d57816116638882611731565b845260208401935060208301925050600181019050611650565b5050509392505050565b600061169a61169584612440565b6123e3565b905080838252602082019050828560208602820111156116b957600080fd5b60005b858110156116e957816116cf8882611803565b8452602084019350602083019250506001810190506116bc565b5050509392505050565b60006117066117018461246c565b6123e3565b90508281526020810184848401111561171e57600080fd5b61172984828561260b565b509392505050565b60008135905061174081612829565b92915050565b600082601f83011261175757600080fd5b813561176784826020860161161b565b91505092915050565b600082601f83011261178157600080fd5b8135611791848260208601611687565b91505092915050565b6000813590506117a981612840565b92915050565b6000813590506117be81612857565b92915050565b6000815190506117d381612857565b92915050565b600082601f8301126117ea57600080fd5b81356117fa8482602086016116f3565b91505092915050565b6000813590506118128161286e565b92915050565b6000806040838503121561182b57600080fd5b600061183985828601611731565b925050602061184a85828601611731565b9150509250929050565b600080600080600060a0868803121561186c57600080fd5b600061187a88828901611731565b955050602061188b88828901611731565b945050604086013567ffffffffffffffff8111156118a857600080fd5b6118b488828901611770565b935050606086013567ffffffffffffffff8111156118d157600080fd5b6118dd88828901611770565b925050608086013567ffffffffffffffff8111156118fa57600080fd5b611906888289016117d9565b9150509295509295909350565b600080600080600060a0868803121561192b57600080fd5b600061193988828901611731565b955050602061194a88828901611731565b945050604061195b88828901611803565b935050606061196c88828901611803565b925050608086013567ffffffffffffffff81111561198957600080fd5b611995888289016117d9565b9150509295509295909350565b600080604083850312156119b557600080fd5b60006119c385828601611731565b92505060206119d48582860161179a565b9150509250929050565b600080604083850312156119f157600080fd5b60006119ff85828601611731565b9250506020611a1085828601611803565b9150509250929050565b60008060408385031215611a2d57600080fd5b600083013567ffffffffffffffff811115611a4757600080fd5b611a5385828601611746565b925050602083013567ffffffffffffffff811115611a7057600080fd5b611a7c85828601611770565b9150509250929050565b600060208284031215611a9857600080fd5b6000611aa6848285016117af565b91505092915050565b600060208284031215611ac157600080fd5b6000611acf848285016117c4565b91505092915050565b600060208284031215611aea57600080fd5b6000611af884828501611803565b91505092915050565b6000611b0d83836120a9565b60208301905092915050565b611b2281612597565b82525050565b6000611b33826124ac565b611b3d81856124da565b9350611b488361249c565b8060005b83811015611b79578151611b608882611b01565b9750611b6b836124cd565b925050600181019050611b4c565b5085935050505092915050565b611b8f816125a9565b82525050565b6000611ba0826124b7565b611baa81856124eb565b9350611bba81856020860161261a565b611bc381612755565b840191505092915050565b6000611bd9826124c2565b611be381856124fc565b9350611bf381856020860161261a565b611bfc81612755565b840191505092915050565b6000611c146034836124fc565b91507f455243313135353a207472616e7366657220746f206e6f6e204552433131353560008301527f526563656976657220696d706c656d656e7465720000000000000000000000006020830152604082019050919050565b6000611c7a6028836124fc565b91507f455243313135353a204552433131353552656365697665722072656a6563746560008301527f6420746f6b656e730000000000000000000000000000000000000000000000006020830152604082019050919050565b6000611ce0602b836124fc565b91507f455243313135353a2062616c616e636520717565727920666f7220746865207a60008301527f65726f20616464726573730000000000000000000000000000000000000000006020830152604082019050919050565b6000611d46601d836124fc565b91507f63686f6f7365206e756d626572206265747765656e2030206f722039390000006000830152602082019050919050565b6000611d866029836124fc565b91507f455243313135353a2063616c6c6572206973206e6f74206f776e6572206e6f7260008301527f20617070726f76656400000000000000000000000000000000000000000000006020830152604082019050919050565b6000611dec6025836124fc565b91507f455243313135353a207472616e7366657220746f20746865207a65726f20616460008301527f64726573730000000000000000000000000000000000000000000000000000006020830152604082019050919050565b6000611e526032836124fc565b91507f455243313135353a207472616e736665722063616c6c6572206973206e6f742060008301527f6f776e6572206e6f7220617070726f76656400000000000000000000000000006020830152604082019050919050565b6000611eb8602a836124fc565b91507f455243313135353a20696e73756666696369656e742062616c616e636520666f60008301527f72207472616e73666572000000000000000000000000000000000000000000006020830152604082019050919050565b6000611f1e6029836124fc565b91507f455243313135353a2073657474696e6720617070726f76616c2073746174757360008301527f20666f722073656c6600000000000000000000000000000000000000000000006020830152604082019050919050565b6000611f846029836124fc565b91507f455243313135353a206163636f756e747320616e6420696473206c656e67746860008301527f206d69736d6174636800000000000000000000000000000000000000000000006020830152604082019050919050565b6000611fea6028836124fc565b91507f455243313135353a2069647320616e6420616d6f756e7473206c656e6774682060008301527f6d69736d617463680000000000000000000000000000000000000000000000006020830152604082019050919050565b60006120506021836124fc565b91507f455243313135353a206d696e7420746f20746865207a65726f2061646472657360008301527f73000000000000000000000000000000000000000000000000000000000000006020830152604082019050919050565b6120b281612601565b82525050565b6120c181612601565b82525050565b600060a0820190506120dc6000830188611b19565b6120e96020830187611b19565b81810360408301526120fb8186611b28565b9050818103606083015261210f8185611b28565b905081810360808301526121238184611b95565b90509695505050505050565b600060a0820190506121446000830188611b19565b6121516020830187611b19565b61215e60408301866120b8565b61216b60608301856120b8565b818103608083015261217d8184611b95565b90509695505050505050565b600060208201905081810360008301526121a38184611b28565b905092915050565b600060408201905081810360008301526121c58185611b28565b905081810360208301526121d98184611b28565b90509392505050565b60006020820190506121f76000830184611b86565b92915050565b600060208201905081810360008301526122178184611bce565b905092915050565b6000602082019050818103600083015261223881611c07565b9050919050565b6000602082019050818103600083015261225881611c6d565b9050919050565b6000602082019050818103600083015261227881611cd3565b9050919050565b6000602082019050818103600083015261229881611d39565b9050919050565b600060208201905081810360008301526122b881611d79565b9050919050565b600060208201905081810360008301526122d881611ddf565b9050919050565b600060208201905081810360008301526122f881611e45565b9050919050565b6000602082019050818103600083015261231881611eab565b9050919050565b6000602082019050818103600083015261233881611f11565b9050919050565b6000602082019050818103600083015261235881611f77565b9050919050565b6000602082019050818103600083015261237881611fdd565b9050919050565b6000602082019050818103600083015261239881612043565b9050919050565b60006020820190506123b460008301846120b8565b92915050565b60006040820190506123cf60008301856120b8565b6123dc60208301846120b8565b9392505050565b6000604051905081810181811067ffffffffffffffff8211171561240a57612409612726565b5b8060405250919050565b600067ffffffffffffffff82111561242f5761242e612726565b5b602082029050602081019050919050565b600067ffffffffffffffff82111561245b5761245a612726565b5b602082029050602081019050919050565b600067ffffffffffffffff82111561248757612486612726565b5b601f19601f8301169050602081019050919050565b6000819050602082019050919050565b600081519050919050565b600081519050919050565b600081519050919050565b6000602082019050919050565b600082825260208201905092915050565b600082825260208201905092915050565b600082825260208201905092915050565b600061251882612601565b915061252383612601565b9250827fffffffffffffffffffffffffffffffffffffffffffffffffffffffffffffffff03821115612558576125576126c8565b5b828201905092915050565b600061256e82612601565b915061257983612601565b92508282101561258c5761258b6126c8565b5b828203905092915050565b60006125a2826125e1565b9050919050565b60008115159050919050565b60007fffffffff0000000000000000000000000000000000000000000000000000000082169050919050565b600073ffffffffffffffffffffffffffffffffffffffff82169050919050565b6000819050919050565b82818337600083830152505050565b60005b8381101561263857808201518184015260208101905061261d565b83811115612647576000848401525b50505050565b6000600282049050600182168061266557607f821691505b60208210811415612679576126786126f7565b5b50919050565b600061268a82612601565b91507fffffffffffffffffffffffffffffffffffffffffffffffffffffffffffffffff8214156126bd576126bc6126c8565b5b600182019050919050565b7f4e487b7100000000000000000000000000000000000000000000000000000000600052601160045260246000fd5b7f4e487b7100000000000000000000000000000000000000000000000000000000600052602260045260246000fd5b7f4e487b7100000000000000000000000000000000000000000000000000000000600052604160045260246000fd5b6000601f19601f8301169050919050565b60008160e01c9050919050565b600060443d101561278357612826565b60046000803e612794600051612766565b6308c379a081146127a55750612826565b60405160043d036004823e80513d602482011167ffffffffffffffff821117156127d157505050612826565b808201805167ffffffffffffffff8111156127f0575050505050612826565b8060208301013d850181111561280b57505050505050612826565b61281482612755565b60208401016040528296505050505050505b90565b61283281612597565b811461283d57600080fd5b50565b612849816125a9565b811461285457600080fd5b50565b612860816125b5565b811461286b57600080fd5b50565b61287781612601565b811461288257600080fd5b5056fea2646970667358221220c08c8d5b16c6089ee332cd24e2c8a56c00397ec17a6f0240b7fc00781e777c4a64736f6c6343000800003368747470733a2f2f73746f726167656170692e666c65656b2e636f2f6c75636173657370696e6f736132382d7465616d2d6275636b65742f6d6167654e66742f6d657461646174612f7b69647d2e6a736f6e",
  "linkReferences": {},
  "deployedLinkReferences": {}
}